{
  "_format": "hh-sol-artifact-1",
  "contractName": "NFT",
  "sourceName": "contracts/NFT.sol",
  "abi": [
    {
      "inputs": [
        {
          "internalType": "address",
          "name": "marketplaceAddress",
          "type": "address"
        },
        {
          "internalType": "string",
          "name": "PassName",
          "type": "string"
        },
        {
          "internalType": "string",
          "name": "PassSymbol",
          "type": "string"
        }
      ],
      "stateMutability": "nonpayable",
      "type": "constructor"
    },
    {
      "anonymous": false,
      "inputs": [
        {
          "indexed": true,
          "internalType": "address",
          "name": "owner",
          "type": "address"
        },
        {
          "indexed": true,
          "internalType": "address",
          "name": "approved",
          "type": "address"
        },
        {
          "indexed": true,
          "internalType": "uint256",
          "name": "tokenId",
          "type": "uint256"
        }
      ],
      "name": "Approval",
      "type": "event"
    },
    {
      "anonymous": false,
      "inputs": [
        {
          "indexed": true,
          "internalType": "address",
          "name": "owner",
          "type": "address"
        },
        {
          "indexed": true,
          "internalType": "address",
          "name": "operator",
          "type": "address"
        },
        {
          "indexed": false,
          "internalType": "bool",
          "name": "approved",
          "type": "bool"
        }
      ],
      "name": "ApprovalForAll",
      "type": "event"
    },
    {
      "anonymous": false,
      "inputs": [
        {
          "indexed": true,
          "internalType": "address",
          "name": "previousOwner",
          "type": "address"
        },
        {
          "indexed": true,
          "internalType": "address",
          "name": "newOwner",
          "type": "address"
        }
      ],
      "name": "OwnershipTransferred",
      "type": "event"
    },
    {
      "anonymous": false,
      "inputs": [
        {
          "indexed": true,
          "internalType": "address",
          "name": "from",
          "type": "address"
        },
        {
          "indexed": true,
          "internalType": "address",
          "name": "to",
          "type": "address"
        },
        {
          "indexed": true,
          "internalType": "uint256",
          "name": "tokenId",
          "type": "uint256"
        }
      ],
      "name": "Transfer",
      "type": "event"
    },
    {
      "inputs": [
        {
          "internalType": "string",
          "name": "tokenURI",
          "type": "string"
        },
        {
          "internalType": "address[]",
          "name": "addresses",
          "type": "address[]"
        }
      ],
      "name": "airdrop",
      "outputs": [
        {
          "internalType": "uint256[]",
          "name": "",
          "type": "uint256[]"
        }
      ],
      "stateMutability": "nonpayable",
      "type": "function"
    },
    {
      "inputs": [
        {
          "internalType": "address",
          "name": "to",
          "type": "address"
        },
        {
          "internalType": "uint256",
          "name": "tokenId",
          "type": "uint256"
        }
      ],
      "name": "approve",
      "outputs": [],
      "stateMutability": "nonpayable",
      "type": "function"
    },
    {
      "inputs": [
        {
          "internalType": "address",
          "name": "owner",
          "type": "address"
        }
      ],
      "name": "balanceOf",
      "outputs": [
        {
          "internalType": "uint256",
          "name": "",
          "type": "uint256"
        }
      ],
      "stateMutability": "view",
      "type": "function"
    },
    {
      "inputs": [
        {
          "internalType": "string",
          "name": "tokenURI",
          "type": "string"
        }
      ],
      "name": "createToken",
      "outputs": [
        {
          "internalType": "uint256",
          "name": "",
          "type": "uint256"
        }
      ],
      "stateMutability": "nonpayable",
      "type": "function"
    },
    {
      "inputs": [
        {
          "internalType": "string",
          "name": "tokenURI",
          "type": "string"
        },
        {
          "internalType": "uint256",
          "name": "times",
          "type": "uint256"
        }
      ],
      "name": "createmultiToken",
      "outputs": [
        {
          "internalType": "uint256[]",
          "name": "",
          "type": "uint256[]"
        }
      ],
      "stateMutability": "nonpayable",
      "type": "function"
    },
    {
      "inputs": [
        {
          "internalType": "string",
          "name": "tokenURI",
          "type": "string"
        },
        {
          "internalType": "uint256",
          "name": "times",
          "type": "uint256"
        },
        {
          "internalType": "address",
          "name": "addresses",
          "type": "address"
        },
        {
          "internalType": "uint256",
          "name": "price",
          "type": "uint256"
        }
      ],
      "name": "createmultiTokenself",
      "outputs": [
        {
          "internalType": "uint256[]",
          "name": "",
          "type": "uint256[]"
        }
      ],
      "stateMutability": "payable",
      "type": "function"
    },
    {
      "inputs": [
        {
          "internalType": "uint256",
          "name": "tokenId",
          "type": "uint256"
        }
      ],
      "name": "getApproved",
      "outputs": [
        {
          "internalType": "address",
          "name": "",
          "type": "address"
        }
      ],
      "stateMutability": "view",
      "type": "function"
    },
    {
      "inputs": [
        {
          "internalType": "address",
          "name": "owner",
          "type": "address"
        },
        {
          "internalType": "address",
          "name": "operator",
          "type": "address"
        }
      ],
      "name": "isApprovedForAll",
      "outputs": [
        {
          "internalType": "bool",
          "name": "",
          "type": "bool"
        }
      ],
      "stateMutability": "view",
      "type": "function"
    },
    {
      "inputs": [],
      "name": "name",
      "outputs": [
        {
          "internalType": "string",
          "name": "",
          "type": "string"
        }
      ],
      "stateMutability": "view",
      "type": "function"
    },
    {
      "inputs": [],
      "name": "owner",
      "outputs": [
        {
          "internalType": "address",
          "name": "",
          "type": "address"
        }
      ],
      "stateMutability": "view",
      "type": "function"
    },
    {
      "inputs": [
        {
          "internalType": "uint256",
          "name": "tokenId",
          "type": "uint256"
        }
      ],
      "name": "ownerOf",
      "outputs": [
        {
          "internalType": "address",
          "name": "",
          "type": "address"
        }
      ],
      "stateMutability": "view",
      "type": "function"
    },
    {
      "inputs": [],
      "name": "renounceOwnership",
      "outputs": [],
      "stateMutability": "nonpayable",
      "type": "function"
    },
    {
      "inputs": [
        {
          "internalType": "address",
          "name": "from",
          "type": "address"
        },
        {
          "internalType": "address",
          "name": "to",
          "type": "address"
        },
        {
          "internalType": "uint256",
          "name": "tokenId",
          "type": "uint256"
        }
      ],
      "name": "safeTransferFrom",
      "outputs": [],
      "stateMutability": "nonpayable",
      "type": "function"
    },
    {
      "inputs": [
        {
          "internalType": "address",
          "name": "from",
          "type": "address"
        },
        {
          "internalType": "address",
          "name": "to",
          "type": "address"
        },
        {
          "internalType": "uint256",
          "name": "tokenId",
          "type": "uint256"
        },
        {
          "internalType": "bytes",
          "name": "_data",
          "type": "bytes"
        }
      ],
      "name": "safeTransferFrom",
      "outputs": [],
      "stateMutability": "nonpayable",
      "type": "function"
    },
    {
      "inputs": [
        {
          "internalType": "address",
          "name": "operator",
          "type": "address"
        },
        {
          "internalType": "bool",
          "name": "approved",
          "type": "bool"
        }
      ],
      "name": "setApprovalForAll",
      "outputs": [],
      "stateMutability": "nonpayable",
      "type": "function"
    },
    {
      "inputs": [
        {
          "internalType": "bytes4",
          "name": "interfaceId",
          "type": "bytes4"
        }
      ],
      "name": "supportsInterface",
      "outputs": [
        {
          "internalType": "bool",
          "name": "",
          "type": "bool"
        }
      ],
      "stateMutability": "view",
      "type": "function"
    },
    {
      "inputs": [],
      "name": "symbol",
      "outputs": [
        {
          "internalType": "string",
          "name": "",
          "type": "string"
        }
      ],
      "stateMutability": "view",
      "type": "function"
    },
    {
      "inputs": [
        {
          "internalType": "uint256",
          "name": "tokenId",
          "type": "uint256"
        }
      ],
      "name": "tokenURI",
      "outputs": [
        {
          "internalType": "string",
          "name": "",
          "type": "string"
        }
      ],
      "stateMutability": "view",
      "type": "function"
    },
    {
      "inputs": [
        {
          "internalType": "address",
          "name": "from",
          "type": "address"
        },
        {
          "internalType": "address",
          "name": "to",
          "type": "address"
        },
        {
          "internalType": "uint256",
          "name": "tokenId",
          "type": "uint256"
        }
      ],
      "name": "transferFrom",
      "outputs": [],
      "stateMutability": "nonpayable",
      "type": "function"
    },
    {
      "inputs": [
        {
          "internalType": "address",
          "name": "newOwner",
          "type": "address"
        }
      ],
      "name": "transferOwnership",
      "outputs": [],
      "stateMutability": "nonpayable",
      "type": "function"
    }
  ],
  "bytecode": "0x60806040523480156200001157600080fd5b506040516200226b3803806200226b833981016040819052620000349162000257565b8151829082906200004d906000906020850190620000fe565b50805162000063906001906020840190620000fe565b505050620000806200007a620000a860201b60201c565b620000ac565b5050600980546001600160a01b0319166001600160a01b039290921691909117905562000330565b3390565b600780546001600160a01b038381166001600160a01b0319831681179093556040519116919082907f8be0079c531659141344cd1fd0a4f28419497f9722a3daafe3b4186f6b6457e090600090a35050565b8280546200010c90620002dd565b90600052602060002090601f0160209004810192826200013057600085556200017b565b82601f106200014b57805160ff19168380011785556200017b565b828001600101855582156200017b579182015b828111156200017b5782518255916020019190600101906200015e565b50620001899291506200018d565b5090565b5b808211156200018957600081556001016200018e565b600082601f830112620001b5578081fd5b81516001600160401b0380821115620001d257620001d26200031a565b604051601f8301601f19908116603f01168101908282118183101715620001fd57620001fd6200031a565b8160405283815260209250868385880101111562000219578485fd5b8491505b838210156200023c57858201830151818301840152908201906200021d565b838211156200024d57848385830101525b9695505050505050565b6000806000606084860312156200026c578283fd5b83516001600160a01b038116811462000283578384fd5b60208501519093506001600160401b0380821115620002a0578384fd5b620002ae87838801620001a4565b93506040860151915080821115620002c4578283fd5b50620002d386828701620001a4565b9150509250925092565b600181811c90821680620002f257607f821691505b602082108114156200031457634e487b7160e01b600052602260045260246000fd5b50919050565b634e487b7160e01b600052604160045260246000fd5b611f2b80620003406000396000f3fe60806040526004361061011f5760003560e01c806370a08231116100a0578063a22cb46511610064578063a22cb4651461032b578063b88d4fde1461034b578063c87b56dd1461036b578063e985e9c51461038b578063f2fde38b146103ab57600080fd5b806370a08231146102b0578063715018a6146102d057806386eb55dc146102e55780638da5cb5b146102f857806395d89b411461031657600080fd5b806316fbfa27116100e757806316fbfa271461020257806323b872dd1461022257806342842e0e1461024257806345576f94146102625780636352211e1461029057600080fd5b806301ffc9a71461012457806306e269541461015957806306fdde0314610186578063081812fc146101a8578063095ea7b3146101e0575b600080fd5b34801561013057600080fd5b5061014461013f3660046119ed565b6103cb565b60405190151581526020015b60405180910390f35b34801561016557600080fd5b50610179610174366004611b2a565b61041d565b6040516101509190611c7a565b34801561019257600080fd5b5061019b6104f6565b6040516101509190611cbe565b3480156101b457600080fd5b506101c86101c3366004611bca565b610588565b6040516001600160a01b039091168152602001610150565b3480156101ec57600080fd5b506102006101fb3660046119c4565b610615565b005b34801561020e57600080fd5b5061017961021d366004611a58565b61072b565b34801561022e57600080fd5b5061020061023d3660046118d6565b610830565b34801561024e57600080fd5b5061020061025d3660046118d6565b610861565b34801561026e57600080fd5b5061028261027d366004611a25565b61087c565b604051908152602001610150565b34801561029c57600080fd5b506101c86102ab366004611bca565b6108ad565b3480156102bc57600080fd5b506102826102cb36600461188a565b610924565b3480156102dc57600080fd5b506102006109ab565b6101796102f3366004611b6d565b610a11565b34801561030457600080fd5b506007546001600160a01b03166101c8565b34801561032257600080fd5b5061019b610ba3565b34801561033757600080fd5b5061020061034636600461198a565b610bb2565b34801561035757600080fd5b50610200610366366004611911565b610c77565b34801561037757600080fd5b5061019b610386366004611bca565b610caf565b34801561039757600080fd5b506101446103a63660046118a4565b610e1e565b3480156103b757600080fd5b506102006103c636600461188a565b610e68565b60006001600160e01b031982166380ac58cd60e01b14806103fc57506001600160e01b03198216635b5e139f60e01b145b8061041757506301ffc9a760e01b6001600160e01b03198316145b92915050565b606060008267ffffffffffffffff81111561044857634e487b7160e01b600052604160045260246000fd5b604051908082528060200260200182016040528015610471578160200160208202803683370190505b50905060005b838110156104ee5761048d600880546001019055565b600061049860085490565b9050808383815181106104bb57634e487b7160e01b600052603260045260246000fd5b6020026020010181815250506104d13382610f33565b6104db8187611066565b50806104e681611e6e565b915050610477565b509392505050565b60606000805461050590611e33565b80601f016020809104026020016040519081016040528092919081815260200182805461053190611e33565b801561057e5780601f106105535761010080835404028352916020019161057e565b820191906000526020600020905b81548152906001019060200180831161056157829003601f168201915b5050505050905090565b6000610593826110f1565b6105f95760405162461bcd60e51b815260206004820152602c60248201527f4552433732313a20617070726f76656420717565727920666f72206e6f6e657860448201526b34b9ba32b73a103a37b5b2b760a11b60648201526084015b60405180910390fd5b506000908152600460205260409020546001600160a01b031690565b6000610620826108ad565b9050806001600160a01b0316836001600160a01b0316141561068e5760405162461bcd60e51b815260206004820152602160248201527f4552433732313a20617070726f76616c20746f2063757272656e74206f776e656044820152603960f91b60648201526084016105f0565b336001600160a01b03821614806106aa57506106aa8133610e1e565b61071c5760405162461bcd60e51b815260206004820152603860248201527f4552433732313a20617070726f76652063616c6c6572206973206e6f74206f7760448201527f6e6572206e6f7220617070726f76656420666f7220616c6c000000000000000060648201526084016105f0565b610726838361110e565b505050565b60606000825167ffffffffffffffff81111561075757634e487b7160e01b600052604160045260246000fd5b604051908082528060200260200182016040528015610780578160200160208202803683370190505b50905060005b83518110156104ee5761079d600880546001019055565b60006107a860085490565b9050808383815181106107cb57634e487b7160e01b600052603260045260246000fd5b6020026020010181815250506107e13382610f33565b6107eb8187611066565b61081d3386848151811061080f57634e487b7160e01b600052603260045260246000fd5b602002602001015183610861565b508061082881611e6e565b915050610786565b61083a338261117c565b6108565760405162461bcd60e51b81526004016105f090611d23565b61072683838361123e565b61072683838360405180602001604052806000815250610c77565b600061088c600880546001019055565b600061089760085490565b90506108a33382610f33565b6104178184611066565b6000818152600260205260408120546001600160a01b0316806104175760405162461bcd60e51b815260206004820152602960248201527f4552433732313a206f776e657220717565727920666f72206e6f6e657869737460448201526832b73a103a37b5b2b760b91b60648201526084016105f0565b60006001600160a01b03821661098f5760405162461bcd60e51b815260206004820152602a60248201527f4552433732313a2062616c616e636520717565727920666f7220746865207a65604482015269726f206164647265737360b01b60648201526084016105f0565b506001600160a01b031660009081526003602052604090205490565b6007546001600160a01b03163314610a055760405162461bcd60e51b815260206004820181905260248201527f4f776e61626c653a2063616c6c6572206973206e6f7420746865206f776e657260448201526064016105f0565b610a0f60006113de565b565b6060610a1d8285611dd1565b3414610a915760405162461bcd60e51b815260206004820152603c60248201527f506c65617365207375626d6974207468652062657474696e6720616d6f756e7460448201527f20696e206f7264657220746f206d696e7420746865207061726c61790000000060648201526084016105f0565b60008467ffffffffffffffff811115610aba57634e487b7160e01b600052604160045260246000fd5b604051908082528060200260200182016040528015610ae3578160200160208202803683370190505b506040519091506001600160a01b038516903480156108fc02916000818181858888f19350505050158015610b1c573d6000803e3d6000fd5b5060005b85811015610b9757610b36600880546001019055565b6000610b4160085490565b905080838381518110610b6457634e487b7160e01b600052603260045260246000fd5b602002602001018181525050610b7a3382610f33565b610b848189611066565b5080610b8f81611e6e565b915050610b20565b5090505b949350505050565b60606001805461050590611e33565b6001600160a01b038216331415610c0b5760405162461bcd60e51b815260206004820152601960248201527f4552433732313a20617070726f766520746f2063616c6c65720000000000000060448201526064016105f0565b3360008181526005602090815260408083206001600160a01b03871680855290835292819020805460ff191686151590811790915590519081529192917f17307eab39ab6107e8899845ad3d59bd9653f200f220920489ca2b5937696c31910160405180910390a35050565b610c81338361117c565b610c9d5760405162461bcd60e51b81526004016105f090611d23565b610ca984848484611430565b50505050565b6060610cba826110f1565b610d205760405162461bcd60e51b815260206004820152603160248201527f45524337323155524953746f726167653a2055524920717565727920666f72206044820152703737b732bc34b9ba32b73a103a37b5b2b760791b60648201526084016105f0565b60008281526006602052604081208054610d3990611e33565b80601f0160208091040260200160405190810160405280929190818152602001828054610d6590611e33565b8015610db25780601f10610d8757610100808354040283529160200191610db2565b820191906000526020600020905b815481529060010190602001808311610d9557829003601f168201915b505050505090506000610dd060408051602081019091526000815290565b9050805160001415610de3575092915050565b815115610e15578082604051602001610dfd929190611c0e565b60405160208183030381529060405292505050919050565b610b9b84611463565b6001600160a01b03808316600090815260056020908152604080832093851683529290529081205460ff1680610e6157506009546001600160a01b038381169116145b9392505050565b6007546001600160a01b03163314610ec25760405162461bcd60e51b815260206004820181905260248201527f4f776e61626c653a2063616c6c6572206973206e6f7420746865206f776e657260448201526064016105f0565b6001600160a01b038116610f275760405162461bcd60e51b815260206004820152602660248201527f4f776e61626c653a206e6577206f776e657220697320746865207a65726f206160448201526564647265737360d01b60648201526084016105f0565b610f30816113de565b50565b6001600160a01b038216610f895760405162461bcd60e51b815260206004820181905260248201527f4552433732313a206d696e7420746f20746865207a65726f206164647265737360448201526064016105f0565b610f92816110f1565b15610fdf5760405162461bcd60e51b815260206004820152601c60248201527f4552433732313a20746f6b656e20616c7265616479206d696e7465640000000060448201526064016105f0565b6001600160a01b0382166000908152600360205260408120805460019290611008908490611da5565b909155505060008181526002602052604080822080546001600160a01b0319166001600160a01b03861690811790915590518392907fddf252ad1be2c89b69c2b068fc378daa952ba7f163c4a11628f55a4df523b3ef908290a45050565b61106f826110f1565b6110d25760405162461bcd60e51b815260206004820152602e60248201527f45524337323155524953746f726167653a2055524920736574206f66206e6f6e60448201526d32bc34b9ba32b73a103a37b5b2b760911b60648201526084016105f0565b600082815260066020908152604090912082516107269284019061175e565b6000908152600260205260409020546001600160a01b0316151590565b600081815260046020526040902080546001600160a01b0319166001600160a01b0384169081179091558190611143826108ad565b6001600160a01b03167f8c5be1e5ebec7d5bd14f71427d1e84f3dd0314c0f7b2291e5b200ac8c7c3b92560405160405180910390a45050565b6000611187826110f1565b6111e85760405162461bcd60e51b815260206004820152602c60248201527f4552433732313a206f70657261746f7220717565727920666f72206e6f6e657860448201526b34b9ba32b73a103a37b5b2b760a11b60648201526084016105f0565b60006111f3836108ad565b9050806001600160a01b0316846001600160a01b0316148061122e5750836001600160a01b031661122384610588565b6001600160a01b0316145b80610b9b5750610b9b8185610e1e565b826001600160a01b0316611251826108ad565b6001600160a01b0316146112b95760405162461bcd60e51b815260206004820152602960248201527f4552433732313a207472616e73666572206f6620746f6b656e2074686174206960448201526839903737ba1037bbb760b91b60648201526084016105f0565b6001600160a01b03821661131b5760405162461bcd60e51b8152602060048201526024808201527f4552433732313a207472616e7366657220746f20746865207a65726f206164646044820152637265737360e01b60648201526084016105f0565b61132660008261110e565b6001600160a01b038316600090815260036020526040812080546001929061134f908490611df0565b90915550506001600160a01b038216600090815260036020526040812080546001929061137d908490611da5565b909155505060008181526002602052604080822080546001600160a01b0319166001600160a01b0386811691821790925591518493918716917fddf252ad1be2c89b69c2b068fc378daa952ba7f163c4a11628f55a4df523b3ef91a4505050565b600780546001600160a01b038381166001600160a01b0319831681179093556040519116919082907f8be0079c531659141344cd1fd0a4f28419497f9722a3daafe3b4186f6b6457e090600090a35050565b61143b84848461123e565b6114478484848461153a565b610ca95760405162461bcd60e51b81526004016105f090611cd1565b606061146e826110f1565b6114d25760405162461bcd60e51b815260206004820152602f60248201527f4552433732314d657461646174613a2055524920717565727920666f72206e6f60448201526e3732bc34b9ba32b73a103a37b5b2b760891b60648201526084016105f0565b60006114e960408051602081019091526000815290565b905060008151116115095760405180602001604052806000815250610e61565b8061151384611644565b604051602001611524929190611c0e565b6040516020818303038152906040529392505050565b60006001600160a01b0384163b1561163c57604051630a85bd0160e11b81526001600160a01b0385169063150b7a029061157e903390899088908890600401611c3d565b602060405180830381600087803b15801561159857600080fd5b505af19250505080156115c8575060408051601f3d908101601f191682019092526115c591810190611a09565b60015b611622573d8080156115f6576040519150601f19603f3d011682016040523d82523d6000602084013e6115fb565b606091505b50805161161a5760405162461bcd60e51b81526004016105f090611cd1565b805181602001fd5b6001600160e01b031916630a85bd0160e11b149050610b9b565b506001610b9b565b6060816116685750506040805180820190915260018152600360fc1b602082015290565b8160005b8115611692578061167c81611e6e565b915061168b9050600a83611dbd565b915061166c565b60008167ffffffffffffffff8111156116bb57634e487b7160e01b600052604160045260246000fd5b6040519080825280601f01601f1916602001820160405280156116e5576020820181803683370190505b5090505b8415610b9b576116fa600183611df0565b9150611707600a86611e89565b611712906030611da5565b60f81b81838151811061173557634e487b7160e01b600052603260045260246000fd5b60200101906001600160f81b031916908160001a905350611757600a86611dbd565b94506116e9565b82805461176a90611e33565b90600052602060002090601f01602090048101928261178c57600085556117d2565b82601f106117a557805160ff19168380011785556117d2565b828001600101855582156117d2579182015b828111156117d25782518255916020019190600101906117b7565b506117de9291506117e2565b5090565b5b808211156117de57600081556001016117e3565b600067ffffffffffffffff83111561181157611811611ec9565b611824601f8401601f1916602001611d74565b905082815283838301111561183857600080fd5b828260208301376000602084830101529392505050565b80356001600160a01b038116811461186657600080fd5b919050565b600082601f83011261187b578081fd5b610e61838335602085016117f7565b60006020828403121561189b578081fd5b610e618261184f565b600080604083850312156118b6578081fd5b6118bf8361184f565b91506118cd6020840161184f565b90509250929050565b6000806000606084860312156118ea578081fd5b6118f38461184f565b92506119016020850161184f565b9150604084013590509250925092565b60008060008060808587031215611926578081fd5b61192f8561184f565b935061193d6020860161184f565b925060408501359150606085013567ffffffffffffffff81111561195f578182fd5b8501601f8101871361196f578182fd5b61197e878235602084016117f7565b91505092959194509250565b6000806040838503121561199c578182fd5b6119a58361184f565b9150602083013580151581146119b9578182fd5b809150509250929050565b600080604083850312156119d6578182fd5b6119df8361184f565b946020939093013593505050565b6000602082840312156119fe578081fd5b8135610e6181611edf565b600060208284031215611a1a578081fd5b8151610e6181611edf565b600060208284031215611a36578081fd5b813567ffffffffffffffff811115611a4c578182fd5b610b9b8482850161186b565b60008060408385031215611a6a578182fd5b823567ffffffffffffffff80821115611a81578384fd5b611a8d8683870161186b565b9350602091508185013581811115611aa3578384fd5b8501601f81018713611ab3578384fd5b803582811115611ac557611ac5611ec9565b8060051b9250611ad6848401611d74565b8181528481019083860185850187018b1015611af0578788fd5b8795505b83861015611b1957611b058161184f565b835260019590950194918601918601611af4565b508096505050505050509250929050565b60008060408385031215611b3c578182fd5b823567ffffffffffffffff811115611b52578283fd5b611b5e8582860161186b565b95602094909401359450505050565b60008060008060808587031215611b82578081fd5b843567ffffffffffffffff811115611b98578182fd5b611ba48782880161186b565b94505060208501359250611bba6040860161184f565b9396929550929360600135925050565b600060208284031215611bdb578081fd5b5035919050565b60008151808452611bfa816020860160208601611e07565b601f01601f19169290920160200192915050565b60008351611c20818460208801611e07565b835190830190611c34818360208801611e07565b01949350505050565b6001600160a01b0385811682528416602082015260408101839052608060608201819052600090611c7090830184611be2565b9695505050505050565b6020808252825182820181905260009190848201906040850190845b81811015611cb257835183529284019291840191600101611c96565b50909695505050505050565b602081526000610e616020830184611be2565b60208082526032908201527f4552433732313a207472616e7366657220746f206e6f6e20455243373231526560408201527131b2b4bb32b91034b6b83632b6b2b73a32b960711b606082015260800190565b60208082526031908201527f4552433732313a207472616e736665722063616c6c6572206973206e6f74206f6040820152701ddb995c881b9bdc88185c1c1c9bdd9959607a1b606082015260800190565b604051601f8201601f1916810167ffffffffffffffff81118282101715611d9d57611d9d611ec9565b604052919050565b60008219821115611db857611db8611e9d565b500190565b600082611dcc57611dcc611eb3565b500490565b6000816000190483118215151615611deb57611deb611e9d565b500290565b600082821015611e0257611e02611e9d565b500390565b60005b83811015611e22578181015183820152602001611e0a565b83811115610ca95750506000910152565b600181811c90821680611e4757607f821691505b60208210811415611e6857634e487b7160e01b600052602260045260246000fd5b50919050565b6000600019821415611e8257611e82611e9d565b5060010190565b600082611e9857611e98611eb3565b500690565b634e487b7160e01b600052601160045260246000fd5b634e487b7160e01b600052601260045260246000fd5b634e487b7160e01b600052604160045260246000fd5b6001600160e01b031981168114610f3057600080fdfea26469706673582212202b013803d944f848e5e4323a1f1774298ae13bd46d0703d7435f96373e0c7b4764736f6c63430008040033",
  "linkReferences": {},
  "deployedLinkReferences": {}
}