{
  "_format": "hh-sol-artifact-1",
  "contractName": "NFT",
  "sourceName": "contracts/NFT.sol",
  "abi": [
    {
      "inputs": [
        {
          "internalType": "address",
          "name": "marketplaceAddress",
          "type": "address"
        },
        {
          "internalType": "string",
          "name": "PassName",
          "type": "string"
        },
        {
          "internalType": "string",
          "name": "PassSymbol",
          "type": "string"
        }
      ],
      "stateMutability": "nonpayable",
      "type": "constructor"
    },
    {
      "anonymous": false,
      "inputs": [
        {
          "indexed": true,
          "internalType": "address",
          "name": "owner",
          "type": "address"
        },
        {
          "indexed": true,
          "internalType": "address",
          "name": "approved",
          "type": "address"
        },
        {
          "indexed": true,
          "internalType": "uint256",
          "name": "tokenId",
          "type": "uint256"
        }
      ],
      "name": "Approval",
      "type": "event"
    },
    {
      "anonymous": false,
      "inputs": [
        {
          "indexed": true,
          "internalType": "address",
          "name": "owner",
          "type": "address"
        },
        {
          "indexed": true,
          "internalType": "address",
          "name": "operator",
          "type": "address"
        },
        {
          "indexed": false,
          "internalType": "bool",
          "name": "approved",
          "type": "bool"
        }
      ],
      "name": "ApprovalForAll",
      "type": "event"
    },
    {
      "anonymous": false,
      "inputs": [
        {
          "indexed": true,
          "internalType": "address",
          "name": "previousOwner",
          "type": "address"
        },
        {
          "indexed": true,
          "internalType": "address",
          "name": "newOwner",
          "type": "address"
        }
      ],
      "name": "OwnershipTransferred",
      "type": "event"
    },
    {
      "anonymous": false,
      "inputs": [
        {
          "indexed": true,
          "internalType": "address",
          "name": "from",
          "type": "address"
        },
        {
          "indexed": true,
          "internalType": "address",
          "name": "to",
          "type": "address"
        },
        {
          "indexed": true,
          "internalType": "uint256",
          "name": "tokenId",
          "type": "uint256"
        }
      ],
      "name": "Transfer",
      "type": "event"
    },
    {
      "inputs": [
        {
          "internalType": "string",
          "name": "tokenURI",
          "type": "string"
        },
        {
          "internalType": "address[]",
          "name": "addresses",
          "type": "address[]"
        }
      ],
      "name": "airdrop",
      "outputs": [
        {
          "internalType": "uint256[]",
          "name": "",
          "type": "uint256[]"
        }
      ],
      "stateMutability": "nonpayable",
      "type": "function"
    },
    {
      "inputs": [
        {
          "internalType": "address",
          "name": "to",
          "type": "address"
        },
        {
          "internalType": "uint256",
          "name": "tokenId",
          "type": "uint256"
        }
      ],
      "name": "approve",
      "outputs": [],
      "stateMutability": "nonpayable",
      "type": "function"
    },
    {
      "inputs": [
        {
          "internalType": "address",
          "name": "owner",
          "type": "address"
        }
      ],
      "name": "balanceOf",
      "outputs": [
        {
          "internalType": "uint256",
          "name": "",
          "type": "uint256"
        }
      ],
      "stateMutability": "view",
      "type": "function"
    },
    {
      "inputs": [
        {
          "internalType": "string",
          "name": "tokenURI",
          "type": "string"
        }
      ],
      "name": "createToken",
      "outputs": [
        {
          "internalType": "uint256",
          "name": "",
          "type": "uint256"
        }
      ],
      "stateMutability": "nonpayable",
      "type": "function"
    },
    {
      "inputs": [
        {
          "internalType": "string",
          "name": "tokenURI",
          "type": "string"
        },
        {
          "internalType": "uint256",
          "name": "times",
          "type": "uint256"
        }
      ],
      "name": "createmultiToken",
      "outputs": [
        {
          "internalType": "uint256[]",
          "name": "",
          "type": "uint256[]"
        }
      ],
      "stateMutability": "nonpayable",
      "type": "function"
    },
    {
      "inputs": [
        {
          "internalType": "uint256",
          "name": "tokenId",
          "type": "uint256"
        }
      ],
      "name": "getApproved",
      "outputs": [
        {
          "internalType": "address",
          "name": "",
          "type": "address"
        }
      ],
      "stateMutability": "view",
      "type": "function"
    },
    {
      "inputs": [
        {
          "internalType": "address",
          "name": "owner",
          "type": "address"
        },
        {
          "internalType": "address",
          "name": "operator",
          "type": "address"
        }
      ],
      "name": "isApprovedForAll",
      "outputs": [
        {
          "internalType": "bool",
          "name": "",
          "type": "bool"
        }
      ],
      "stateMutability": "view",
      "type": "function"
    },
    {
      "inputs": [],
      "name": "name",
      "outputs": [
        {
          "internalType": "string",
          "name": "",
          "type": "string"
        }
      ],
      "stateMutability": "view",
      "type": "function"
    },
    {
      "inputs": [],
      "name": "owner",
      "outputs": [
        {
          "internalType": "address",
          "name": "",
          "type": "address"
        }
      ],
      "stateMutability": "view",
      "type": "function"
    },
    {
      "inputs": [
        {
          "internalType": "uint256",
          "name": "tokenId",
          "type": "uint256"
        }
      ],
      "name": "ownerOf",
      "outputs": [
        {
          "internalType": "address",
          "name": "",
          "type": "address"
        }
      ],
      "stateMutability": "view",
      "type": "function"
    },
    {
      "inputs": [],
      "name": "renounceOwnership",
      "outputs": [],
      "stateMutability": "nonpayable",
      "type": "function"
    },
    {
      "inputs": [
        {
          "internalType": "address",
          "name": "from",
          "type": "address"
        },
        {
          "internalType": "address",
          "name": "to",
          "type": "address"
        },
        {
          "internalType": "uint256",
          "name": "tokenId",
          "type": "uint256"
        }
      ],
      "name": "safeTransferFrom",
      "outputs": [],
      "stateMutability": "nonpayable",
      "type": "function"
    },
    {
      "inputs": [
        {
          "internalType": "address",
          "name": "from",
          "type": "address"
        },
        {
          "internalType": "address",
          "name": "to",
          "type": "address"
        },
        {
          "internalType": "uint256",
          "name": "tokenId",
          "type": "uint256"
        },
        {
          "internalType": "bytes",
          "name": "_data",
          "type": "bytes"
        }
      ],
      "name": "safeTransferFrom",
      "outputs": [],
      "stateMutability": "nonpayable",
      "type": "function"
    },
    {
      "inputs": [
        {
          "internalType": "address",
          "name": "operator",
          "type": "address"
        },
        {
          "internalType": "bool",
          "name": "approved",
          "type": "bool"
        }
      ],
      "name": "setApprovalForAll",
      "outputs": [],
      "stateMutability": "nonpayable",
      "type": "function"
    },
    {
      "inputs": [
        {
          "internalType": "bytes4",
          "name": "interfaceId",
          "type": "bytes4"
        }
      ],
      "name": "supportsInterface",
      "outputs": [
        {
          "internalType": "bool",
          "name": "",
          "type": "bool"
        }
      ],
      "stateMutability": "view",
      "type": "function"
    },
    {
      "inputs": [],
      "name": "symbol",
      "outputs": [
        {
          "internalType": "string",
          "name": "",
          "type": "string"
        }
      ],
      "stateMutability": "view",
      "type": "function"
    },
    {
      "inputs": [
        {
          "internalType": "uint256",
          "name": "tokenId",
          "type": "uint256"
        }
      ],
      "name": "tokenURI",
      "outputs": [
        {
          "internalType": "string",
          "name": "",
          "type": "string"
        }
      ],
      "stateMutability": "view",
      "type": "function"
    },
    {
      "inputs": [
        {
          "internalType": "address",
          "name": "from",
          "type": "address"
        },
        {
          "internalType": "address",
          "name": "to",
          "type": "address"
        },
        {
          "internalType": "uint256",
          "name": "tokenId",
          "type": "uint256"
        }
      ],
      "name": "transferFrom",
      "outputs": [],
      "stateMutability": "nonpayable",
      "type": "function"
    },
    {
      "inputs": [
        {
          "internalType": "address",
          "name": "newOwner",
          "type": "address"
        }
      ],
      "name": "transferOwnership",
      "outputs": [],
      "stateMutability": "nonpayable",
      "type": "function"
    }
  ],
  "bytecode": "0x60806040523480156200001157600080fd5b5060405162001f6038038062001f60833981016040819052620000349162000257565b8151829082906200004d906000906020850190620000fe565b50805162000063906001906020840190620000fe565b505050620000806200007a620000a860201b60201c565b620000ac565b5050600980546001600160a01b0319166001600160a01b039290921691909117905562000330565b3390565b600780546001600160a01b038381166001600160a01b0319831681179093556040519116919082907f8be0079c531659141344cd1fd0a4f28419497f9722a3daafe3b4186f6b6457e090600090a35050565b8280546200010c90620002dd565b90600052602060002090601f0160209004810192826200013057600085556200017b565b82601f106200014b57805160ff19168380011785556200017b565b828001600101855582156200017b579182015b828111156200017b5782518255916020019190600101906200015e565b50620001899291506200018d565b5090565b5b808211156200018957600081556001016200018e565b600082601f830112620001b5578081fd5b81516001600160401b0380821115620001d257620001d26200031a565b604051601f8301601f19908116603f01168101908282118183101715620001fd57620001fd6200031a565b8160405283815260209250868385880101111562000219578485fd5b8491505b838210156200023c57858201830151818301840152908201906200021d565b838211156200024d57848385830101525b9695505050505050565b6000806000606084860312156200026c578283fd5b83516001600160a01b038116811462000283578384fd5b60208501519093506001600160401b0380821115620002a0578384fd5b620002ae87838801620001a4565b93506040860151915080821115620002c4578283fd5b50620002d386828701620001a4565b9150509250925092565b600181811c90821680620002f257607f821691505b602082108114156200031457634e487b7160e01b600052602260045260246000fd5b50919050565b634e487b7160e01b600052604160045260246000fd5b611c2080620003406000396000f3fe608060405234801561001057600080fd5b50600436106101215760003560e01c80636352211e116100ad578063a22cb46511610071578063a22cb46514610264578063b88d4fde14610277578063c87b56dd1461028a578063e985e9c51461029d578063f2fde38b146102b057600080fd5b80636352211e1461021d57806370a0823114610230578063715018a6146102435780638da5cb5b1461024b57806395d89b411461025c57600080fd5b8063095ea7b3116100f4578063095ea7b3146101ae57806316fbfa27146101c357806323b872dd146101d657806342842e0e146101e957806345576f94146101fc57600080fd5b806301ffc9a71461012657806306e269541461014e57806306fdde031461016e578063081812fc14610183575b600080fd5b61013961013436600461175e565b6102c3565b60405190151581526020015b60405180910390f35b61016161015c36600461189b565b610315565b604051610145919061198e565b6101766103ee565b60405161014591906119d2565b6101966101913660046118de565b610480565b6040516001600160a01b039091168152602001610145565b6101c16101bc366004611735565b61050d565b005b6101616101d13660046117c9565b610623565b6101c16101e4366004611647565b610728565b6101c16101f7366004611647565b610759565b61020f61020a366004611796565b610774565b604051908152602001610145565b61019661022b3660046118de565b6107a5565b61020f61023e3660046115fb565b61081c565b6101c16108a3565b6007546001600160a01b0316610196565b610176610909565b6101c16102723660046116fb565b610918565b6101c1610285366004611682565b6109dd565b6101766102983660046118de565b610a15565b6101396102ab366004611615565b610b8c565b6101c16102be3660046115fb565b610bd6565b60006001600160e01b031982166380ac58cd60e01b14806102f457506001600160e01b03198216635b5e139f60e01b145b8061030f57506301ffc9a760e01b6001600160e01b03198316145b92915050565b606060008267ffffffffffffffff81111561034057634e487b7160e01b600052604160045260246000fd5b604051908082528060200260200182016040528015610369578160200160208202803683370190505b50905060005b838110156103e657610385600880546001019055565b600061039060085490565b9050808383815181106103b357634e487b7160e01b600052603260045260246000fd5b6020026020010181815250506103c93382610ca1565b6103d38187610dd4565b50806103de81611b63565b91505061036f565b509392505050565b6060600080546103fd90611b28565b80601f016020809104026020016040519081016040528092919081815260200182805461042990611b28565b80156104765780601f1061044b57610100808354040283529160200191610476565b820191906000526020600020905b81548152906001019060200180831161045957829003601f168201915b5050505050905090565b600061048b82610e5f565b6104f15760405162461bcd60e51b815260206004820152602c60248201527f4552433732313a20617070726f76656420717565727920666f72206e6f6e657860448201526b34b9ba32b73a103a37b5b2b760a11b60648201526084015b60405180910390fd5b506000908152600460205260409020546001600160a01b031690565b6000610518826107a5565b9050806001600160a01b0316836001600160a01b031614156105865760405162461bcd60e51b815260206004820152602160248201527f4552433732313a20617070726f76616c20746f2063757272656e74206f776e656044820152603960f91b60648201526084016104e8565b336001600160a01b03821614806105a257506105a28133610b8c565b6106145760405162461bcd60e51b815260206004820152603860248201527f4552433732313a20617070726f76652063616c6c6572206973206e6f74206f7760448201527f6e6572206e6f7220617070726f76656420666f7220616c6c000000000000000060648201526084016104e8565b61061e8383610e7c565b505050565b60606000825167ffffffffffffffff81111561064f57634e487b7160e01b600052604160045260246000fd5b604051908082528060200260200182016040528015610678578160200160208202803683370190505b50905060005b83518110156103e657610695600880546001019055565b60006106a060085490565b9050808383815181106106c357634e487b7160e01b600052603260045260246000fd5b6020026020010181815250506106d93382610ca1565b6106e38187610dd4565b6107153386848151811061070757634e487b7160e01b600052603260045260246000fd5b602002602001015183610759565b508061072081611b63565b91505061067e565b6107323382610eea565b61074e5760405162461bcd60e51b81526004016104e890611a37565b61061e838383610fac565b61061e838383604051806020016040528060008152506109dd565b6000610784600880546001019055565b600061078f60085490565b905061079b3382610ca1565b61030f8184610dd4565b6000818152600260205260408120546001600160a01b03168061030f5760405162461bcd60e51b815260206004820152602960248201527f4552433732313a206f776e657220717565727920666f72206e6f6e657869737460448201526832b73a103a37b5b2b760b91b60648201526084016104e8565b60006001600160a01b0382166108875760405162461bcd60e51b815260206004820152602a60248201527f4552433732313a2062616c616e636520717565727920666f7220746865207a65604482015269726f206164647265737360b01b60648201526084016104e8565b506001600160a01b031660009081526003602052604090205490565b6007546001600160a01b031633146108fd5760405162461bcd60e51b815260206004820181905260248201527f4f776e61626c653a2063616c6c6572206973206e6f7420746865206f776e657260448201526064016104e8565b610907600061114c565b565b6060600180546103fd90611b28565b6001600160a01b0382163314156109715760405162461bcd60e51b815260206004820152601960248201527f4552433732313a20617070726f766520746f2063616c6c65720000000000000060448201526064016104e8565b3360008181526005602090815260408083206001600160a01b03871680855290835292819020805460ff191686151590811790915590519081529192917f17307eab39ab6107e8899845ad3d59bd9653f200f220920489ca2b5937696c31910160405180910390a35050565b6109e73383610eea565b610a035760405162461bcd60e51b81526004016104e890611a37565b610a0f8484848461119e565b50505050565b6060610a2082610e5f565b610a865760405162461bcd60e51b815260206004820152603160248201527f45524337323155524953746f726167653a2055524920717565727920666f72206044820152703737b732bc34b9ba32b73a103a37b5b2b760791b60648201526084016104e8565b60008281526006602052604081208054610a9f90611b28565b80601f0160208091040260200160405190810160405280929190818152602001828054610acb90611b28565b8015610b185780601f10610aed57610100808354040283529160200191610b18565b820191906000526020600020905b815481529060010190602001808311610afb57829003601f168201915b505050505090506000610b3660408051602081019091526000815290565b9050805160001415610b49575092915050565b815115610b7b578082604051602001610b63929190611922565b60405160208183030381529060405292505050919050565b610b84846111d1565b949350505050565b6001600160a01b03808316600090815260056020908152604080832093851683529290529081205460ff1680610bcf57506009546001600160a01b038381169116145b9392505050565b6007546001600160a01b03163314610c305760405162461bcd60e51b815260206004820181905260248201527f4f776e61626c653a2063616c6c6572206973206e6f7420746865206f776e657260448201526064016104e8565b6001600160a01b038116610c955760405162461bcd60e51b815260206004820152602660248201527f4f776e61626c653a206e6577206f776e657220697320746865207a65726f206160448201526564647265737360d01b60648201526084016104e8565b610c9e8161114c565b50565b6001600160a01b038216610cf75760405162461bcd60e51b815260206004820181905260248201527f4552433732313a206d696e7420746f20746865207a65726f206164647265737360448201526064016104e8565b610d0081610e5f565b15610d4d5760405162461bcd60e51b815260206004820152601c60248201527f4552433732313a20746f6b656e20616c7265616479206d696e7465640000000060448201526064016104e8565b6001600160a01b0382166000908152600360205260408120805460019290610d76908490611ab9565b909155505060008181526002602052604080822080546001600160a01b0319166001600160a01b03861690811790915590518392907fddf252ad1be2c89b69c2b068fc378daa952ba7f163c4a11628f55a4df523b3ef908290a45050565b610ddd82610e5f565b610e405760405162461bcd60e51b815260206004820152602e60248201527f45524337323155524953746f726167653a2055524920736574206f66206e6f6e60448201526d32bc34b9ba32b73a103a37b5b2b760911b60648201526084016104e8565b6000828152600660209081526040909120825161061e928401906114cf565b6000908152600260205260409020546001600160a01b0316151590565b600081815260046020526040902080546001600160a01b0319166001600160a01b0384169081179091558190610eb1826107a5565b6001600160a01b03167f8c5be1e5ebec7d5bd14f71427d1e84f3dd0314c0f7b2291e5b200ac8c7c3b92560405160405180910390a45050565b6000610ef582610e5f565b610f565760405162461bcd60e51b815260206004820152602c60248201527f4552433732313a206f70657261746f7220717565727920666f72206e6f6e657860448201526b34b9ba32b73a103a37b5b2b760a11b60648201526084016104e8565b6000610f61836107a5565b9050806001600160a01b0316846001600160a01b03161480610f9c5750836001600160a01b0316610f9184610480565b6001600160a01b0316145b80610b845750610b848185610b8c565b826001600160a01b0316610fbf826107a5565b6001600160a01b0316146110275760405162461bcd60e51b815260206004820152602960248201527f4552433732313a207472616e73666572206f6620746f6b656e2074686174206960448201526839903737ba1037bbb760b91b60648201526084016104e8565b6001600160a01b0382166110895760405162461bcd60e51b8152602060048201526024808201527f4552433732313a207472616e7366657220746f20746865207a65726f206164646044820152637265737360e01b60648201526084016104e8565b611094600082610e7c565b6001600160a01b03831660009081526003602052604081208054600192906110bd908490611ae5565b90915550506001600160a01b03821660009081526003602052604081208054600192906110eb908490611ab9565b909155505060008181526002602052604080822080546001600160a01b0319166001600160a01b0386811691821790925591518493918716917fddf252ad1be2c89b69c2b068fc378daa952ba7f163c4a11628f55a4df523b3ef91a4505050565b600780546001600160a01b038381166001600160a01b0319831681179093556040519116919082907f8be0079c531659141344cd1fd0a4f28419497f9722a3daafe3b4186f6b6457e090600090a35050565b6111a9848484610fac565b6111b5848484846112a8565b610a0f5760405162461bcd60e51b81526004016104e8906119e5565b60606111dc82610e5f565b6112405760405162461bcd60e51b815260206004820152602f60248201527f4552433732314d657461646174613a2055524920717565727920666f72206e6f60448201526e3732bc34b9ba32b73a103a37b5b2b760891b60648201526084016104e8565b600061125760408051602081019091526000815290565b905060008151116112775760405180602001604052806000815250610bcf565b80611281846113b5565b604051602001611292929190611922565b6040516020818303038152906040529392505050565b60006001600160a01b0384163b156113aa57604051630a85bd0160e11b81526001600160a01b0385169063150b7a02906112ec903390899088908890600401611951565b602060405180830381600087803b15801561130657600080fd5b505af1925050508015611336575060408051601f3d908101601f191682019092526113339181019061177a565b60015b611390573d808015611364576040519150601f19603f3d011682016040523d82523d6000602084013e611369565b606091505b5080516113885760405162461bcd60e51b81526004016104e8906119e5565b805181602001fd5b6001600160e01b031916630a85bd0160e11b149050610b84565b506001949350505050565b6060816113d95750506040805180820190915260018152600360fc1b602082015290565b8160005b811561140357806113ed81611b63565b91506113fc9050600a83611ad1565b91506113dd565b60008167ffffffffffffffff81111561142c57634e487b7160e01b600052604160045260246000fd5b6040519080825280601f01601f191660200182016040528015611456576020820181803683370190505b5090505b8415610b845761146b600183611ae5565b9150611478600a86611b7e565b611483906030611ab9565b60f81b8183815181106114a657634e487b7160e01b600052603260045260246000fd5b60200101906001600160f81b031916908160001a9053506114c8600a86611ad1565b945061145a565b8280546114db90611b28565b90600052602060002090601f0160209004810192826114fd5760008555611543565b82601f1061151657805160ff1916838001178555611543565b82800160010185558215611543579182015b82811115611543578251825591602001919060010190611528565b5061154f929150611553565b5090565b5b8082111561154f5760008155600101611554565b600067ffffffffffffffff83111561158257611582611bbe565b611595601f8401601f1916602001611a88565b90508281528383830111156115a957600080fd5b828260208301376000602084830101529392505050565b80356001600160a01b03811681146115d757600080fd5b919050565b600082601f8301126115ec578081fd5b610bcf83833560208501611568565b60006020828403121561160c578081fd5b610bcf826115c0565b60008060408385031215611627578081fd5b611630836115c0565b915061163e602084016115c0565b90509250929050565b60008060006060848603121561165b578081fd5b611664846115c0565b9250611672602085016115c0565b9150604084013590509250925092565b60008060008060808587031215611697578081fd5b6116a0856115c0565b93506116ae602086016115c0565b925060408501359150606085013567ffffffffffffffff8111156116d0578182fd5b8501601f810187136116e0578182fd5b6116ef87823560208401611568565b91505092959194509250565b6000806040838503121561170d578182fd5b611716836115c0565b91506020830135801515811461172a578182fd5b809150509250929050565b60008060408385031215611747578182fd5b611750836115c0565b946020939093013593505050565b60006020828403121561176f578081fd5b8135610bcf81611bd4565b60006020828403121561178b578081fd5b8151610bcf81611bd4565b6000602082840312156117a7578081fd5b813567ffffffffffffffff8111156117bd578182fd5b610b84848285016115dc565b600080604083850312156117db578182fd5b823567ffffffffffffffff808211156117f2578384fd5b6117fe868387016115dc565b9350602091508185013581811115611814578384fd5b8501601f81018713611824578384fd5b80358281111561183657611836611bbe565b8060051b9250611847848401611a88565b8181528481019083860185850187018b1015611861578788fd5b8795505b8386101561188a57611876816115c0565b835260019590950194918601918601611865565b508096505050505050509250929050565b600080604083850312156118ad578182fd5b823567ffffffffffffffff8111156118c3578283fd5b6118cf858286016115dc565b95602094909401359450505050565b6000602082840312156118ef578081fd5b5035919050565b6000815180845261190e816020860160208601611afc565b601f01601f19169290920160200192915050565b60008351611934818460208801611afc565b835190830190611948818360208801611afc565b01949350505050565b6001600160a01b0385811682528416602082015260408101839052608060608201819052600090611984908301846118f6565b9695505050505050565b6020808252825182820181905260009190848201906040850190845b818110156119c6578351835292840192918401916001016119aa565b50909695505050505050565b602081526000610bcf60208301846118f6565b60208082526032908201527f4552433732313a207472616e7366657220746f206e6f6e20455243373231526560408201527131b2b4bb32b91034b6b83632b6b2b73a32b960711b606082015260800190565b60208082526031908201527f4552433732313a207472616e736665722063616c6c6572206973206e6f74206f6040820152701ddb995c881b9bdc88185c1c1c9bdd9959607a1b606082015260800190565b604051601f8201601f1916810167ffffffffffffffff81118282101715611ab157611ab1611bbe565b604052919050565b60008219821115611acc57611acc611b92565b500190565b600082611ae057611ae0611ba8565b500490565b600082821015611af757611af7611b92565b500390565b60005b83811015611b17578181015183820152602001611aff565b83811115610a0f5750506000910152565b600181811c90821680611b3c57607f821691505b60208210811415611b5d57634e487b7160e01b600052602260045260246000fd5b50919050565b6000600019821415611b7757611b77611b92565b5060010190565b600082611b8d57611b8d611ba8565b500690565b634e487b7160e01b600052601160045260246000fd5b634e487b7160e01b600052601260045260246000fd5b634e487b7160e01b600052604160045260246000fd5b6001600160e01b031981168114610c9e57600080fdfea26469706673582212202910d9fcccc5f981054562e5ec572ca0e288bcec80f05e304a64b34b34aed6e464736f6c63430008040033",
  "linkReferences": {},
  "deployedLinkReferences": {}
}