{
  "_format": "hh-sol-artifact-1",
  "contractName": "NFTMarket",
  "sourceName": "contracts/Market.sol",
  "abi": [
    {
      "inputs": [],
      "stateMutability": "nonpayable",
      "type": "constructor"
    },
    {
      "anonymous": false,
      "inputs": [
        {
          "indexed": true,
          "internalType": "uint256",
          "name": "itemId",
          "type": "uint256"
        },
        {
          "indexed": true,
          "internalType": "address",
          "name": "nftContract",
          "type": "address"
        },
        {
          "indexed": true,
          "internalType": "uint256",
          "name": "tokenId",
          "type": "uint256"
        },
        {
          "indexed": false,
          "internalType": "address",
          "name": "seller",
          "type": "address"
        },
        {
          "indexed": false,
          "internalType": "address",
          "name": "owner",
          "type": "address"
        },
        {
          "indexed": false,
          "internalType": "uint256",
          "name": "price",
          "type": "uint256"
        },
        {
          "indexed": false,
          "internalType": "bool",
          "name": "sold",
          "type": "bool"
        }
      ],
      "name": "MarketItemCreated",
      "type": "event"
    },
    {
      "inputs": [
        {
          "internalType": "address",
          "name": "nftContract",
          "type": "address"
        },
        {
          "internalType": "uint256",
          "name": "tokenId",
          "type": "uint256"
        },
        {
          "internalType": "uint256",
          "name": "price",
          "type": "uint256"
        }
      ],
      "name": "createMarketItem",
      "outputs": [],
      "stateMutability": "payable",
      "type": "function"
    },
    {
      "inputs": [
        {
          "internalType": "address",
          "name": "nftContract",
          "type": "address"
        },
        {
          "internalType": "uint256",
          "name": "itemId",
          "type": "uint256"
        }
      ],
      "name": "createMarketSale",
      "outputs": [],
      "stateMutability": "payable",
      "type": "function"
    },
    {
      "inputs": [
        {
          "internalType": "address",
          "name": "nftContract",
          "type": "address"
        },
        {
          "internalType": "uint256[]",
          "name": "tokenId",
          "type": "uint256[]"
        },
        {
          "internalType": "uint256[]",
          "name": "price",
          "type": "uint256[]"
        }
      ],
      "name": "createMultiMarketItem",
      "outputs": [],
      "stateMutability": "payable",
      "type": "function"
    },
    {
      "inputs": [],
      "name": "fetchItemsCreated",
      "outputs": [
        {
          "components": [
            {
              "internalType": "uint256",
              "name": "itemId",
              "type": "uint256"
            },
            {
              "internalType": "address",
              "name": "nftContract",
              "type": "address"
            },
            {
              "internalType": "uint256",
              "name": "tokenId",
              "type": "uint256"
            },
            {
              "internalType": "address payable",
              "name": "seller",
              "type": "address"
            },
            {
              "internalType": "address payable",
              "name": "owner",
              "type": "address"
            },
            {
              "internalType": "uint256",
              "name": "price",
              "type": "uint256"
            },
            {
              "internalType": "bool",
              "name": "sold",
              "type": "bool"
            }
          ],
          "internalType": "struct NFTMarket.MarketItem[]",
          "name": "",
          "type": "tuple[]"
        }
      ],
      "stateMutability": "view",
      "type": "function"
    },
    {
      "inputs": [],
      "name": "fetchMarketItems",
      "outputs": [
        {
          "components": [
            {
              "internalType": "uint256",
              "name": "itemId",
              "type": "uint256"
            },
            {
              "internalType": "address",
              "name": "nftContract",
              "type": "address"
            },
            {
              "internalType": "uint256",
              "name": "tokenId",
              "type": "uint256"
            },
            {
              "internalType": "address payable",
              "name": "seller",
              "type": "address"
            },
            {
              "internalType": "address payable",
              "name": "owner",
              "type": "address"
            },
            {
              "internalType": "uint256",
              "name": "price",
              "type": "uint256"
            },
            {
              "internalType": "bool",
              "name": "sold",
              "type": "bool"
            }
          ],
          "internalType": "struct NFTMarket.MarketItem[]",
          "name": "",
          "type": "tuple[]"
        }
      ],
      "stateMutability": "view",
      "type": "function"
    },
    {
      "inputs": [],
      "name": "fetchMyNFTs",
      "outputs": [
        {
          "components": [
            {
              "internalType": "uint256",
              "name": "itemId",
              "type": "uint256"
            },
            {
              "internalType": "address",
              "name": "nftContract",
              "type": "address"
            },
            {
              "internalType": "uint256",
              "name": "tokenId",
              "type": "uint256"
            },
            {
              "internalType": "address payable",
              "name": "seller",
              "type": "address"
            },
            {
              "internalType": "address payable",
              "name": "owner",
              "type": "address"
            },
            {
              "internalType": "uint256",
              "name": "price",
              "type": "uint256"
            },
            {
              "internalType": "bool",
              "name": "sold",
              "type": "bool"
            }
          ],
          "internalType": "struct NFTMarket.MarketItem[]",
          "name": "",
          "type": "tuple[]"
        }
      ],
      "stateMutability": "view",
      "type": "function"
    },
    {
      "inputs": [],
      "name": "getListingPrice",
      "outputs": [
        {
          "internalType": "uint256",
          "name": "",
          "type": "uint256"
        }
      ],
      "stateMutability": "view",
      "type": "function"
    }
  ],
  "bytecode": "0x60806040526658d15e1762800060045534801561001b57600080fd5b506001600055600380546001600160a01b03191633179055610f19806100426000396000f3fe6080604052600436106100705760003560e01c8063202e37401161004e578063202e3740146100d357806358eb2df5146100e8578063c23b139e146100fb578063f064c32e1461010e57600080fd5b80630f08efe01461007557806312e85585146100a057806314c15f10146100be575b600080fd5b34801561008157600080fd5b5061008a610123565b6040516100979190610d74565b60405180910390f35b3480156100ac57600080fd5b50600454604051908152602001610097565b6100d16100cc366004610c9b565b6102cb565b005b3480156100df57600080fd5b5061008a610412565b6100d16100f6366004610d42565b6105f8565b6100d1610109366004610d19565b610827565b34801561011a57600080fd5b5061008a610a13565b6060600061013060015490565b9050600061013d60025490565b60015461014a9190610e9b565b90506000808267ffffffffffffffff81111561017657634e487b7160e01b600052604160045260246000fd5b6040519080825280602002602001820160405280156101af57816020015b61019c610bf9565b8152602001906001900390816101945790505b50905060005b848110156102c25760006005816101cd846001610e83565b81526020810191909152604001600020600401546001600160a01b031614156102b05760006101fd826001610e83565b600081815260056020818152604092839020835160e0810185528154815260018201546001600160a01b0390811693820193909352600282015494810194909452600381015482166060850152600481015490911660808401529081015460a0830152600681015460ff16151560c083015285519293509185908790811061029557634e487b7160e01b600052603260045260246000fd5b60209081029190910101526102ab600186610e83565b945050505b806102ba81610eb2565b9150506101b5565b50949350505050565b600260005414156102f75760405162461bcd60e51b81526004016102ee90610e4c565b60405180910390fd5b600260009081558282828161031c57634e487b7160e01b600052603260045260246000fd5b90506020020135116103705760405162461bcd60e51b815260206004820152601c60248201527f5072696365206d757374206265206174206c656173742031207765690000000060448201526064016102ee565b60045434146103915760405162461bcd60e51b81526004016102ee90610e08565b60005b83811015610405576103f3868686848181106103c057634e487b7160e01b600052603260045260246000fd5b905060200201358585858181106103e757634e487b7160e01b600052603260045260246000fd5b905060200201356105f8565b806103fd81610eb2565b915050610394565b5050600160005550505050565b6060600061041f60015490565b905060008060005b8381101561048257336005600061043f846001610e83565b81526020810191909152604001600020600401546001600160a01b031614156104705761046d600184610e83565b92505b8061047a81610eb2565b915050610427565b5060008267ffffffffffffffff8111156104ac57634e487b7160e01b600052604160045260246000fd5b6040519080825280602002602001820160405280156104e557816020015b6104d2610bf9565b8152602001906001900390816104ca5790505b50905060005b848110156102c2573360056000610503846001610e83565b81526020810191909152604001600020600401546001600160a01b031614156105e6576000610533826001610e83565b600081815260056020818152604092839020835160e0810185528154815260018201546001600160a01b0390811693820193909352600282015494810194909452600381015482166060850152600481015490911660808401529081015460a0830152600681015460ff16151560c08301528551929350918590879081106105cb57634e487b7160e01b600052603260045260246000fd5b60209081029190910101526105e1600186610e83565b945050505b806105f081610eb2565b9150506104eb565b6002600054141561061b5760405162461bcd60e51b81526004016102ee90610e4c565b60026000558061066d5760405162461bcd60e51b815260206004820152601c60248201527f5072696365206d757374206265206174206c656173742031207765690000000060448201526064016102ee565b600454341461068e5760405162461bcd60e51b81526004016102ee90610e08565b61069c600180546001019055565b60006106a760015490565b6040805160e0810182528281526001600160a01b0387811660208084018281528486018a8152336060870181815260006080890181815260a08a018e815260c08b018381528d8452600598899052928c90209a518b55955160018b018054918b166001600160a01b0319928316179055945160028b0155915160038a018054918a1691861691909117905590516004808a01805492909916919094161790965591519286019290925592516006909401805494151560ff199095169490941790935592516323b872dd60e01b81529182015230602482015260448101869052919250906323b872dd90606401600060405180830381600087803b1580156107ad57600080fd5b505af11580156107c1573d6000803e3d6000fd5b505060408051338152600060208201819052818301879052606082015290518693506001600160a01b038816925084917f045dfa01dcba2b36aba1d3dc4a874f4b0c5d2fbeb8d2c4b34a7d88c8d8f929d1919081900360800190a4505060016000555050565b6002600054141561084a5760405162461bcd60e51b81526004016102ee90610e4c565b60026000818155828152600560208190526040909120908101549101543482146108de576040805162461bcd60e51b81526020600482015260248101919091527f506c65617365207375626d6974207468652061736b696e67207072696365206960448201527f6e206f7264657220746f20636f6d706c6574652074686520707572636861736560648201526084016102ee565b6000838152600560205260408082206003015490516001600160a01b03909116913480156108fc02929091818181858888f19350505050158015610926573d6000803e3d6000fd5b506040516323b872dd60e01b8152306004820152336024820152604481018290526001600160a01b038516906323b872dd90606401600060405180830381600087803b15801561097557600080fd5b505af1158015610989573d6000803e3d6000fd5b50505060008481526005602052604090206004810180546001600160a01b03191633179055600601805460ff19166001179055506109cb600280546001019055565b6003546004546040516001600160a01b039092169181156108fc0291906000818181858888f19350505050158015610a07573d6000803e3d6000fd5b50506001600055505050565b60606000610a2060015490565b905060008060005b83811015610a83573360056000610a40846001610e83565b81526020810191909152604001600020600301546001600160a01b03161415610a7157610a6e600184610e83565b92505b80610a7b81610eb2565b915050610a28565b5060008267ffffffffffffffff811115610aad57634e487b7160e01b600052604160045260246000fd5b604051908082528060200260200182016040528015610ae657816020015b610ad3610bf9565b815260200190600190039081610acb5790505b50905060005b848110156102c2573360056000610b04846001610e83565b81526020810191909152604001600020600301546001600160a01b03161415610be7576000610b34826001610e83565b600081815260056020818152604092839020835160e0810185528154815260018201546001600160a01b0390811693820193909352600282015494810194909452600381015482166060850152600481015490911660808401529081015460a0830152600681015460ff16151560c0830152855192935091859087908110610bcc57634e487b7160e01b600052603260045260246000fd5b6020908102919091010152610be2600186610e83565b945050505b80610bf181610eb2565b915050610aec565b6040805160e081018252600080825260208201819052918101829052606081018290526080810182905260a0810182905260c081019190915290565b80356001600160a01b0381168114610c4c57600080fd5b919050565b60008083601f840112610c62578182fd5b50813567ffffffffffffffff811115610c79578182fd5b6020830191508360208260051b8501011115610c9457600080fd5b9250929050565b600080600080600060608688031215610cb2578081fd5b610cbb86610c35565b9450602086013567ffffffffffffffff80821115610cd7578283fd5b610ce389838a01610c51565b90965094506040880135915080821115610cfb578283fd5b50610d0888828901610c51565b969995985093965092949392505050565b60008060408385031215610d2b578182fd5b610d3483610c35565b946020939093013593505050565b600080600060608486031215610d56578283fd5b610d5f84610c35565b95602085013595506040909401359392505050565b602080825282518282018190526000919060409081850190868401855b82811015610dfb57815180518552868101516001600160a01b039081168887015286820151878701526060808301518216908701526080808301519091169086015260a0808201519086015260c09081015115159085015260e09093019290850190600101610d91565b5091979650505050505050565b60208082526024908201527f5072696365206d75737420626520657175616c20746f206c697374696e6720706040820152637269636560e01b606082015260800190565b6020808252601f908201527f5265656e7472616e637947756172643a207265656e7472616e742063616c6c00604082015260600190565b60008219821115610e9657610e96610ecd565b500190565b600082821015610ead57610ead610ecd565b500390565b6000600019821415610ec657610ec6610ecd565b5060010190565b634e487b7160e01b600052601160045260246000fdfea2646970667358221220cb27b8a318d53a078d5ba473198b558cd5cd8f04ac869255738b0feb6f6cf8f864736f6c63430008040033",
  "linkReferences": {},
  "deployedLinkReferences": {}
}